:100000000A128A11FC2F00308A000408840A820731
:1000100000345234613469346C3477346134793467
:100020002034433472346F347334733469346E342F
:10003000673400344E34653461347234203474349F
:100040006F342034633472346F34733473346934EE
:100050006E3467340034473461347434653420348A
:100060006934733420344F34703465346E346934F9
:100070006E346734003441347434743461346E3413
:10008000743469346F346E342034743472346134AF
:1000900069346E3400344734613474346534203448
:1000A00069347334203443346C346F3473346534BE
:1000B0006434003447346134743465342034693432
:1000C000733420344F34703465346E340034533418
:1000D000743461347234203479346F34723420349F
:1000E000433461347234003450346C3465346134D8
:1000F00073346534203457346134693474340034D3
:100100005434683461346E346B34203479346F3451
:0E01100075340034673461347434653400345F
:100C7200F500F301F401502E7308750784000A127F
:100C82008A1103200A128A110A128A1197260A125D
:100C92008A110130F3070318F40A0030F4077308CD
:100CA200750784000A128A1103200A128A11003A77
:100CB200031D5C2E5D2E3D2E0800F2007208F039F5
:100CC2008312031388000810881008150730F100FA
:100CD2007D30F000F00B6B2EF10B6B2E83120313A1
:100CE20008110730F1007D30F000F00B762EF10B89
:100CF200762E7208F00003300310F00DFF3E031D44
:100D02007D2E0310700DF03983120313880008152D
:100D1200081088100730F1007D30F000F00B8F2EA4
:100D2200F10B8F2E8312031308110800F2007208D0
:100D3200F03983120313880008148810081507304D
:100D4200F1007D30F000F00BA42EF10BA42E8312E3
:100D5200031308110730F1007D30F000F00BAF2EC5
:100D6200F10BAF2E7208F00003300310F00DFF3EBE
:100D7200031DB62E0310700DF03983120313880081
:100D82000815081488100730F1007D30F000F00BD0
:100D9200C82EF10BC82E8312031308110800831604
:100DA200031388016230F4006530F300F30BD72E91
:100DB200F40BD72EDC2E02300A128A115E260A129A
:100DC2008A1128300A128A115E260A128A110E30FE
:100DD2000A128A115E260A128A110C300A128A112C
:100DE2005E260A128A1101300A128A115E260A123E
:100DF2008A110D30F400FB30F300F30BFE2EF40BDE
:100E0200FE2E032F06300A128A115E260A128A115A
:100E120080300A128A115E260A128A1108000A120A
:100E22008A11D0260A128A1180300A128A115E268D
:100E32000A128A1101300A128A1139260A128A11FB
:100E4200C0300A128A115E260A128A1182300A12F0
:100E52008A1139260A128A11831603138801FF3078
:100E62008700860114308312031386008312031352
:100E72000703031D3D2F3E2F952F80300A128A1142
:100E82005E260A128A1133300A128A1139260A1290
:100E92008A11C0300A128A115E260A128A11123091
:100EA2000A128A1139260A128A114130F700EE30ED
:100EB200F600F60B5A2FF70B5A2F0000A9308312B7
:100EC200031386004130F700EE30F600F60B672F71
:100ED200F70B672F000009308312031386001A30C4
:100EE200F8005E30F7006E30F600F60B762FF70B47
:100EF200762FF80B762F000080300A128A115E26B8
:100F02000A128A116C300A128A1139260A128A11BF
:100F1200C0300A128A115E260A128A1143300A125E
:100F22008A1139260A128A11023083120313070624
:100F3200031D9C2F9D2F372F80300A128A115E26A7
:100F42000A128A115F300A128A1139260A128A118C
:100F5200C0300A128A115E260A128A1123300A123E
:100F62008A1139260A128A114130F700EE30F60052
:100F7200F60BB92FF70BB92F0000C23083120313FF
:100F820086004130F700EE30F600F60BC62FF70B65
:100F9200C62F000012308312031386001A30F800A5
:100FA2005E30F7006E30F600F60BD52FF70BD52F1B
:100FB200F80BD52F00001430831203138600803003
:100FC2000A128A115E260A128A1178300A128A11CE
:100FD20039260A128A11C0300A128A115E260A12B2
:100FE2008A1152300A128A1139260A128A11372FAF
:0E0FF2000A128A11002883010A128A11102F98
:00000001FF
